:020000040000FA
:1000000030020010E1000000E9000000EB000000F9
:10001000ED000000EF000000F10000000000000013
:10002000000000000000000000000000F3000000DD
:10003000F500000000000000F7000000F9000000DB
:10004000FB000000FB000000FB000000FB000000C4
:10005000FB000000FB000000FB000000FB000000B4
:10006000FB000000FB000000FB000000FB000000A4
:10007000FB000000FB000000FB000000FB00000094
:10008000FB000000FB000000FB000000FB00000084
:10009000FB000000FB000000FB000000FB00000074
:1000A000FB000000FB000000FB000000FB00000064
:1000B000FB000000FB000000FB000000FB00000054
:1000C000FB000000FB000000FB000000DFF80CD08C
:1000D00000F04CF80048004787090000300200108B
:1000E0000648804706480047FEE7FEE7FEE7FEE7D2
:1000F000FEE7FEE7FEE7FEE7FEE7FEE73904000065
:10010000CD0000000D48006840F050000B49086029
:1001100083200B4908730C200870002008710846E2
:10012000007A40F007000872F2200649087004487F
:10013000007B20F0800002490873704700C0024035
:1001400000C0004028C0004040EA01039B0703D0E4
:1001500009E008C9121F08C0042AFAD203E011F806
:10016000013B00F8013B521EF9D27047064C074D87
:1001700006E0E06840F0010394E807009847103477
:10018000AC42F6D3FFF7A6FFB0010000D00100009B
:1001900002E008C8121F08C1002AFAD17047704750
:1001A000002001E001C1121F002AFBD170470000AE
:1001B000400A0000000000102C0000009001000028
:1001C0006C0A00002C00001004020000A0010000D6
:1001D000000000000000000000000000000000001F
:1001E000000000000000000000000000000000000F
:1001F00000000000000000000000000000000000FF
:1002000000000000000000000000000000000000EE
:1002100000000000000000000000000000000000DE
:1002200000000000000000000000000000000000CE
:1002300000000000000000000000000000000000BE
:1002400000000000000000000000000000000000AE
:10025000000000000000000000000000000000009E
:10026000000000000000000000000000000000008E
:10027000000000000000000000000000000000007E
:10028000000000000000000000000000000000006E
:10029000000000000000000000000000000000005E
:1002A000000000000000000000000000000000004E
:1002B000000000000000000000000000000000003E
:1002C000000000000000000000000000000000002E
:1002D000000000000000000000000000000000001E
:1002E000000000000000000000000000000000000E
:1002F000000000000000000000000000FFFFFFFF02
:1003000094480068C0F30160032864D192480068F3
:1003100010F0030006D0012823D002283FD0032884
:1003200058D100E000BF8B480068C0F30E0000F118
:1003300001004FEA4000894900FB01F08849D1F8EB
:100340008810C1F3074101F10101B0FBF1F18548CB
:100350000068C0B200F10100B1FBF0F08249086012
:1003600038E07C480068C0F30E0000F101004FEA5D
:1003700040007E4900FB01F07949D1F88810C1F3B3
:10038000074101F10101B0FBF1F176480068C0B20C
:1003900000F10100B1FBF0F0734908601AE06D480C
:1003A0000068C0F30E0000F101004FEA00416C4804
:1003B000D0F88800C0F3074000F10100B1FBF0F174
:1003C00068480068C0B200F10100B1FBF0F0664976
:1003D000086000BF2FE06048006810F0030006D0FE
:1003E000012810D0022819D0032823D100E000BF33
:1003F0005C480068C0B200F101005849B1FBF0F060
:100400005949086016E057480068C0B200F1010081
:100410005649B1FBF0F0544908600BE051480068C0
:10042000C0B200F101004FF40041B1FBF0F04E49C1
:10043000086000BF00BF704720204D490860484851
:10044000D0F8A00110F0200F05D000BF4848006888
:1004500010F0400FFAD00320424908604FF000002E
:100460003F49C1F8A801434908604FF001003A49EB
:1004700008604148414908604FF0AA0040490860BF
:100480004FF0550008604FF001003E4908604FF002
:10049000AA003B4908604FF055003149C1F88C0073
:1004A00000BF2C48006810F0806FFAD00320354957
:1004B00008604FF0AA002A49C1F88C004FF055009F
:1004C0002F49086000BF2348006810F0407FFAD031
:1004D00023202D4908604FF0AA002149C1F8AC0043
:1004E0004FF05500294908604FF001002849086085
:1004F0004FF0AA00254908604FF055001849C1F88F
:10050000AC0000BF2348006810F4806FFAD00320CD
:100510001F4908604FF0AA001149C1F8AC004FF024
:1005200055001A49086000BF1A48006810F4407F5F
:10053000FAD01948194908604FF000000849C1F87D
:10054000C80143F23A0008604FF000001449086007
:100550007047000088C00F400CC10F4000093D00EB
:1005600000C00F4004C10F4000000010001BB70086
:10057000A0C10F40ACC10F406300050084C00F4014
:100580008CC00F4080C00F40A4C00F40ACC00F40D3
:10059000A0C00F40A8C00F40DE872804C4C00F4091
:1005A00008ED00E0002100E0491C8142FCD37047C7
:1005B0004FF470008649C8634FF00070C867400070
:1005C000C867800083490860704700B5FFF7F0FFF7
:1005D000814800687E4948634FF08060C8674010DA
:1005E000C867C0007D4908604FF01900FFF7DAFFC7
:1005F0004FF080507649C1F89C0000BD00B57848A6
:10060000007800F0F0007449086008460088000493
:100610000860FFF7DAFF7248007800F00F006E49BB
:1006200008600846008800050860FFF7CEFF4FF419
:100630007A70FFF7B7FF00BD00B56A48C06820F4C4
:100640007F406849C8600846C06920F44020C861FE
:100650000846C06920F44010C8610846406A20F08E
:10066000407048625A48006A40F470005849086275
:100670000846006E40F0007008660846006E40F0C4
:10068000806008665848006840F08050C1F88000DB
:10069000FFF78EFF4FF44860FFF784FF302050498A
:1006A0000860FFF7ABFF47F23050FFF77BFF3020C9
:1006B0004B490860FFF7A2FF47F23050FFF772FF87
:1006C000202047490860FFF799FF47F23050FFF7B5
:1006D00069FF202042490860FFF790FF47F2305041
:1006E000FFF760FF28203E490860FFF787FF47F2C9
:1006F0003050FFF757FF062039490860FFF77EFFAB
:1007000047F23050FFF74EFF012035490860FFF7F0
:1007100075FF47F23050FFF745FF0E203049086063
:10072000FFF76CFF47F23050FFF73CFF00BD00B50C
:10073000FFF73EFF28480068254948634FF00070E6
:1007400088674000C8678000244908604FF019009E
:10075000FFF728FF4FF080501D49C1F89C0000BDF5
:1007600000B51F48007800F0F0001B4908600846FB
:10077000008800040860FFF7DAFF1948007800F0ED
:100780000F00154908600846008800050860FFF75B
:10079000CEFF4FF47A70FFF705FF00BD00B50120D2
:1007A0000F490860FFF72AFF42F21070FFF7FAFEC8
:1007B00000BD10B50346002405E0185D0849086037
:1007C000FFF7CEFF641C185D0028F6D110BD0000B5
:1007D00000C009209CC009200800001098C0092012
:1007E0000400001000C0024080C0092000BF7B4907
:1007F000097D11F0200FFAD078490870704786B053
:1008000006460F464FF0000875A207CA01AB07C3A2
:100810000D20FFF7EBFF0A20FFF7E8FF002404E0BC
:1008200001A9085DFFF7E2FF641C01A8005D002834
:10083000F6D1A7F13005412E01D164204543422E67
:1008400002D105EB8500C500432E02D105EB8500E2
:10085000450000240DE00A2095FBF0F100FB11504B
:10086000303004A908550A2095FBF0F5641C08F106
:100870000108002DEFD1A8F1010404E004A9085DEE
:10088000FFF7B4FF641E002CF8DA0D20FFF7AEFF6F
:100890000A20FFF7ABFF01E000F010F8FCE70021B1
:1008A00000E0491C8142FCD3704700BF4B48007DEB
:1008B00010F0010FFAD04948007870478EB0382206
:1008C0004AA16846FFF740FC5CE0002504E01DF803
:1008D0000500FFF78BFF6D1C1DF805000028F6D101
:1008E000FFF7E3FF04462046FFF780FFFFF7DDFF39
:1008F00006463046FFF77AFF412C10D14FF0C0601A
:10090000484988634FF00070C8634748FFF7C7FF46
:10091000A0064449C86331462046FFF770FF422CC9
:1009200010D14FF480703F4988634000C8633F484E
:10093000FFF7B5FF4FF440703A49C863314620468F
:10094000FFF75DFF432C19D14FF4007035498863E0
:100950004010C8633648FFF7A2FF4FF400703149DA
:1009600088634010C8633148FFF799FF4FF4407027
:100970002C49C86331462046FFF741FF4FF44070D1
:100980002849C863A1E74FF0C06026490862C863E0
:10099000FFF752FDFFF7B4FCFFF74EFEFFF7B2FB87
:1009A0004FF44860FFF7FEFD802022490860FFF702
:1009B00025FE4FF44870FFF7F5FD1F48FFF7F9FEDD
:1009C000C0201C490860FFF719FE4FF44870FFF77C
:1009D000E9FD1A48FFF7EDFEFFF770FF00C0004089
:1009E000416D6F756E742D2D2D2D3E00506C65611F
:1009F000736520656E74657220746865206E616D24
:100A000065206F66206974656D20616E64206E6F6D
:100A10002E6F66206974656D7320686572652D2D73
:100A20002D2D3E0000C009200065CD1D80F0FA028A
:100A300040787D01040000100C0000101A00001026
:100A400000E1F5050000000000000000412020202A
:100A50002020422020202020430031303020202040
:0C0A600034302020202031300000000045
:04000005000000E116
:00000001FF
